{
    "contractName": "MetaNodeStake",
    "abi": [
        {
            "inputs": [
                {
                    "internalType": "address",
                    "name": "_rewardToken",
                    "type": "address"
                }
            ],
            "stateMutability": "nonpayable",
            "type": "constructor"
        },
        {
            "inputs": [],
            "name": "AccessControlBadConfirmation",
            "type": "error"
        },
        {
            "inputs": [
                {
                    "internalType": "address",
                    "name": "account",
                    "type": "address"
                },
                {
                    "internalType": "bytes32",
                    "name": "neededRole",
                    "type": "bytes32"
                }
            ],
            "name": "AccessControlUnauthorizedAccount",
            "type": "error"
        },
        {
            "inputs": [],
            "name": "EnforcedPause",
            "type": "error"
        },
        {
            "inputs": [],
            "name": "ExpectedPause",
            "type": "error"
        },
        {
            "inputs": [],
            "name": "ReentrancyGuardReentrantCall",
            "type": "error"
        },
        {
            "anonymous": false,
            "inputs": [
                {
                    "indexed": false,
                    "internalType": "address",
                    "name": "account",
                    "type": "address"
                }
            ],
            "name": "Paused",
            "type": "event"
        },
        {
            "anonymous": false,
            "inputs": [
                {
                    "indexed": false,
                    "internalType": "uint256",
                    "name": "pid",
                    "type": "uint256"
                },
                {
                    "indexed": false,
                    "internalType": "address",
                    "name": "stTokenAddress",
                    "type": "address"
                }
            ],
            "name": "PoolAdded",
            "type": "event"
        },
        {
            "anonymous": false,
            "inputs": [
                {
                    "indexed": false,
                    "internalType": "uint256",
                    "name": "pid",
                    "type": "uint256"
                }
            ],
            "name": "PoolUpdated",
            "type": "event"
        },
        {
            "anonymous": false,
            "inputs": [
                {
                    "indexed": true,
                    "internalType": "address",
                    "name": "user",
                    "type": "address"
                },
                {
                    "indexed": false,
                    "internalType": "uint256",
                    "name": "pid",
                    "type": "uint256"
                },
                {
                    "indexed": false,
                    "internalType": "uint256",
                    "name": "amount",
                    "type": "uint256"
                }
            ],
            "name": "RewardClaimed",
            "type": "event"
        },
        {
            "anonymous": false,
            "inputs": [
                {
                    "indexed": true,
                    "internalType": "bytes32",
                    "name": "role",
                    "type": "bytes32"
                },
                {
                    "indexed": true,
                    "internalType": "bytes32",
                    "name": "previousAdminRole",
                    "type": "bytes32"
                },
                {
                    "indexed": true,
                    "internalType": "bytes32",
                    "name": "newAdminRole",
                    "type": "bytes32"
                }
            ],
            "name": "RoleAdminChanged",
            "type": "event"
        },
        {
            "anonymous": false,
            "inputs": [
                {
                    "indexed": true,
                    "internalType": "bytes32",
                    "name": "role",
                    "type": "bytes32"
                },
                {
                    "indexed": true,
                    "internalType": "address",
                    "name": "account",
                    "type": "address"
                },
                {
                    "indexed": true,
                    "internalType": "address",
                    "name": "sender",
                    "type": "address"
                }
            ],
            "name": "RoleGranted",
            "type": "event"
        },
        {
            "anonymous": false,
            "inputs": [
                {
                    "indexed": true,
                    "internalType": "bytes32",
                    "name": "role",
                    "type": "bytes32"
                },
                {
                    "indexed": true,
                    "internalType": "address",
                    "name": "account",
                    "type": "address"
                },
                {
                    "indexed": true,
                    "internalType": "address",
                    "name": "sender",
                    "type": "address"
                }
            ],
            "name": "RoleRevoked",
            "type": "event"
        },
        {
            "anonymous": false,
            "inputs": [
                {
                    "indexed": true,
                    "internalType": "address",
                    "name": "user",
                    "type": "address"
                },
                {
                    "indexed": false,
                    "internalType": "uint256",
                    "name": "pid",
                    "type": "uint256"
                },
                {
                    "indexed": false,
                    "internalType": "uint256",
                    "name": "amount",
                    "type": "uint256"
                }
            ],
            "name": "Staked",
            "type": "event"
        },
        {
            "anonymous": false,
            "inputs": [
                {
                    "indexed": false,
                    "internalType": "address",
                    "name": "account",
                    "type": "address"
                }
            ],
            "name": "Unpaused",
            "type": "event"
        },
        {
            "anonymous": false,
            "inputs": [
                {
                    "indexed": true,
                    "internalType": "address",
                    "name": "user",
                    "type": "address"
                },
                {
                    "indexed": false,
                    "internalType": "uint256",
                    "name": "pid",
                    "type": "uint256"
                },
                {
                    "indexed": false,
                    "internalType": "uint256",
                    "name": "amount",
                    "type": "uint256"
                }
            ],
            "name": "Unstaked",
            "type": "event"
        },
        {
            "inputs": [],
            "name": "ADMIN_ROLE",
            "outputs": [
                {
                    "internalType": "bytes32",
                    "name": "",
                    "type": "bytes32"
                }
            ],
            "stateMutability": "view",
            "type": "function"
        },
        {
            "inputs": [],
            "name": "DEFAULT_ADMIN_ROLE",
            "outputs": [
                {
                    "internalType": "bytes32",
                    "name": "",
                    "type": "bytes32"
                }
            ],
            "stateMutability": "view",
            "type": "function"
        },
        {
            "inputs": [],
            "name": "UPGRADER_ROLE",
            "outputs": [
                {
                    "internalType": "bytes32",
                    "name": "",
                    "type": "bytes32"
                }
            ],
            "stateMutability": "view",
            "type": "function"
        },
        {
            "inputs": [
                {
                    "internalType": "address",
                    "name": "stTokenAddress",
                    "type": "address"
                },
                {
                    "internalType": "uint256",
                    "name": "poolWeight",
                    "type": "uint256"
                },
                {
                    "internalType": "uint256",
                    "name": "minDepositAmount",
                    "type": "uint256"
                },
                {
                    "internalType": "uint256",
                    "name": "unstakeLockedBlocks",
                    "type": "uint256"
                }
            ],
            "name": "addPool",
            "outputs": [],
            "stateMutability": "nonpayable",
            "type": "function"
        },
        {
            "inputs": [
                {
                    "internalType": "uint256",
                    "name": "pid",
                    "type": "uint256"
                }
            ],
            "name": "claimReward",
            "outputs": [],
            "stateMutability": "nonpayable",
            "type": "function"
        },
        {
            "inputs": [],
            "name": "emergencyPause",
            "outputs": [],
            "stateMutability": "nonpayable",
            "type": "function"
        },
        {
            "inputs": [],
            "name": "emergencyUnpause",
            "outputs": [],
            "stateMutability": "nonpayable",
            "type": "function"
        },
        {
            "inputs": [
                {
                    "internalType": "bytes32",
                    "name": "role",
                    "type": "bytes32"
                }
            ],
            "name": "getRoleAdmin",
            "outputs": [
                {
                    "internalType": "bytes32",
                    "name": "",
                    "type": "bytes32"
                }
            ],
            "stateMutability": "view",
            "type": "function"
        },
        {
            "inputs": [
                {
                    "internalType": "bytes32",
                    "name": "role",
                    "type": "bytes32"
                },
                {
                    "internalType": "address",
                    "name": "account",
                    "type": "address"
                }
            ],
            "name": "grantRole",
            "outputs": [],
            "stateMutability": "nonpayable",
            "type": "function"
        },
        {
            "inputs": [
                {
                    "internalType": "bytes32",
                    "name": "role",
                    "type": "bytes32"
                },
                {
                    "internalType": "address",
                    "name": "account",
                    "type": "address"
                }
            ],
            "name": "hasRole",
            "outputs": [
                {
                    "internalType": "bool",
                    "name": "",
                    "type": "bool"
                }
            ],
            "stateMutability": "view",
            "type": "function"
        },
        {
            "inputs": [],
            "name": "paused",
            "outputs": [
                {
                    "internalType": "bool",
                    "name": "",
                    "type": "bool"
                }
            ],
            "stateMutability": "view",
            "type": "function"
        },
        {
            "inputs": [
                {
                    "internalType": "uint256",
                    "name": "pid",
                    "type": "uint256"
                },
                {
                    "internalType": "address",
                    "name": "user",
                    "type": "address"
                }
            ],
            "name": "pendingReward",
            "outputs": [
                {
                    "internalType": "uint256",
                    "name": "",
                    "type": "uint256"
                }
            ],
            "stateMutability": "view",
            "type": "function"
        },
        {
            "inputs": [
                {
                    "internalType": "uint256",
                    "name": "",
                    "type": "uint256"
                }
            ],
            "name": "pools",
            "outputs": [
                {
                    "internalType": "address",
                    "name": "stTokenAddress",
                    "type": "address"
                },
                {
                    "internalType": "uint256",
                    "name": "poolWeight",
                    "type": "uint256"
                },
                {
                    "internalType": "uint256",
                    "name": "lastRewardBlock",
                    "type": "uint256"
                },
                {
                    "internalType": "uint256",
                    "name": "accMetaNodePerST",
                    "type": "uint256"
                },
                {
                    "internalType": "uint256",
                    "name": "stTokenAmount",
                    "type": "uint256"
                },
                {
                    "internalType": "uint256",
                    "name": "minDepositAmount",
                    "type": "uint256"
                },
                {
                    "internalType": "uint256",
                    "name": "unstakeLockedBlocks",
                    "type": "uint256"
                }
            ],
            "stateMutability": "view",
            "type": "function"
        },
        {
            "inputs": [
                {
                    "internalType": "bytes32",
                    "name": "role",
                    "type": "bytes32"
                },
                {
                    "internalType": "address",
                    "name": "callerConfirmation",
                    "type": "address"
                }
            ],
            "name": "renounceRole",
            "outputs": [],
            "stateMutability": "nonpayable",
            "type": "function"
        },
        {
            "inputs": [
                {
                    "internalType": "bytes32",
                    "name": "role",
                    "type": "bytes32"
                },
                {
                    "internalType": "address",
                    "name": "account",
                    "type": "address"
                }
            ],
            "name": "revokeRole",
            "outputs": [],
            "stateMutability": "nonpayable",
            "type": "function"
        },
        {
            "inputs": [],
            "name": "rewardToken",
            "outputs": [
                {
                    "internalType": "contract IERC20",
                    "name": "",
                    "type": "address"
                }
            ],
            "stateMutability": "view",
            "type": "function"
        },
        {
            "inputs": [
                {
                    "internalType": "uint256",
                    "name": "pid",
                    "type": "uint256"
                },
                {
                    "internalType": "uint256",
                    "name": "amount",
                    "type": "uint256"
                }
            ],
            "name": "stake",
            "outputs": [],
            "stateMutability": "payable",
            "type": "function"
        },
        {
            "inputs": [
                {
                    "internalType": "bytes4",
                    "name": "interfaceId",
                    "type": "bytes4"
                }
            ],
            "name": "supportsInterface",
            "outputs": [
                {
                    "internalType": "bool",
                    "name": "",
                    "type": "bool"
                }
            ],
            "stateMutability": "view",
            "type": "function"
        },
        {
            "inputs": [],
            "name": "totalWeight",
            "outputs": [
                {
                    "internalType": "uint256",
                    "name": "",
                    "type": "uint256"
                }
            ],
            "stateMutability": "view",
            "type": "function"
        },
        {
            "inputs": [
                {
                    "internalType": "uint256",
                    "name": "pid",
                    "type": "uint256"
                },
                {
                    "internalType": "uint256",
                    "name": "amount",
                    "type": "uint256"
                }
            ],
            "name": "unstake",
            "outputs": [],
            "stateMutability": "nonpayable",
            "type": "function"
        },
        {
            "inputs": [
                {
                    "internalType": "uint256",
                    "name": "pid",
                    "type": "uint256"
                },
                {
                    "internalType": "uint256",
                    "name": "poolWeight",
                    "type": "uint256"
                },
                {
                    "internalType": "uint256",
                    "name": "minDepositAmount",
                    "type": "uint256"
                },
                {
                    "internalType": "uint256",
                    "name": "unstakeLockedBlocks",
                    "type": "uint256"
                }
            ],
            "name": "updatePoolConfig",
            "outputs": [],
            "stateMutability": "nonpayable",
            "type": "function"
        },
        {
            "inputs": [
                {
                    "internalType": "uint256",
                    "name": "",
                    "type": "uint256"
                },
                {
                    "internalType": "address",
                    "name": "",
                    "type": "address"
                }
            ],
            "name": "users",
            "outputs": [
                {
                    "internalType": "uint256",
                    "name": "stAmount",
                    "type": "uint256"
                },
                {
                    "internalType": "uint256",
                    "name": "finishedMetaNode",
                    "type": "uint256"
                },
                {
                    "internalType": "uint256",
                    "name": "pendingMetaNode",
                    "type": "uint256"
                }
            ],
            "stateMutability": "view",
            "type": "function"
        },
        {
            "inputs": [
                {
                    "internalType": "uint256",
                    "name": "pid",
                    "type": "uint256"
                }
            ],
            "name": "withdrawUnstaked",
            "outputs": [],
            "stateMutability": "nonpayable",
            "type": "function"
        }
    ],
    "bytecode": "60806040523461019757604051601f6115e438819003918201601f19168301916001600160401b038311848410176101835780849260209460405283398101031261019757516001600160a01b038116810361019757600180556100623361019b565b5061006c33610211565b50610076336102a4565b5060028054610100600160a81b03191660089290921b610100600160a81b031691909117905560405160e081016001600160401b03811182821017610183576040525f8152602081016064815260408201438152606083015f8152608084015f815260a0850191662386f26fc10000835260c08601936103e88552600354956801000000000000000087101561018357600187018060035587101561016f5760069660035f52600760205f209102019760018060a01b0390511660018060a01b03198954161788555160018801555160028701555160038601555160048501555160058401555191015560405161122c90816103388239f35b634e487b7160e01b5f52603260045260245ffd5b634e487b7160e01b5f52604160045260245ffd5b5f80fd5b6001600160a01b0381165f9081525f5160206115c45f395f51905f52602052604090205460ff1661020c576001600160a01b03165f8181525f5160206115c45f395f51905f5260205260408120805460ff191660011790553391905f5160206115645f395f51905f528180a4600190565b505f90565b6001600160a01b0381165f9081525f5160206115845f395f51905f52602052604090205460ff1661020c576001600160a01b03165f8181525f5160206115845f395f51905f5260205260408120805460ff191660011790553391907fa49807205ce4d355092ef5a8a18f56e8913cf4a201fbe287825b095693c21775905f5160206115645f395f51905f529080a4600190565b6001600160a01b0381165f9081525f5160206115a45f395f51905f52602052604090205460ff1661020c576001600160a01b03165f8181525f5160206115a45f395f51905f5260205260408120805460ff191660011790553391907f189ab7a9244df0848122154315af71fe140f3db0fe014031783b0946b8c9d2e3905f5160206115645f395f51905f529080a460019056fe6080806040526004361015610012575f80fd5b5f3560e01c90816301ffc9a714610dfb575080632343d52214610c15578063248a9ca314610beb5780632f2ff15d14610bae57806336568abe14610b6a5780634a4e3bd514610b0457806351858e2714610aab5780635a4ec0ca1461097e5780635c975abb1461095c57806375b238fc146109225780637b0472f01461078657806391d148541461073e57806396c82e571461072457806398969e82146105e15780639e2c8a5b14610477578063a217fddf1461045d578063ac4afa38146103e1578063ae169a501461028c578063b9d02df414610231578063d45d2e78146101c7578063d547741f14610183578063f72c0d8b146101495763f7c618c114610119575f80fd5b34610145575f3660031901126101455760025460405160089190911c6001600160a01b03168152602090f35b5f80fd5b34610145575f3660031901126101455760206040517f189ab7a9244df0848122154315af71fe140f3db0fe014031783b0946b8c9d2e38152f35b34610145576040366003190112610145576101c56004356101a2610e4e565b906101c06101bb825f525f602052600160405f20015490565b61100c565b6110cc565b005b34610145576080366003190112610145577f141d729c29cc848b27c53f7dbe9f9542cedc4ed2efa7bd2aeb2a4bdce06a407f6020600435610206610f9d565b61020f81610e7a565b50602435600182015560443560058201556006606435910155604051908152a1005b346101455760403660031901126101455761024a610e4e565b6004355f52600460205260405f209060018060a01b03165f52602052606060405f20805490600260018201549101549060405192835260208301526040820152f35b34610145576020366003190112610145576004356102a8610f7d565b6102b061114c565b6102b981611167565b5f81815260046020908152604080832033845290915290206002810180549182156103a6575f60019255016102ef828254610ec3565b905560025460405163a9059cbb60e01b81523360048201526024810183905290602090829060081c6001600160a01b0316815f816044810103925af1801561039b5761036e575b5060405191825260208201527ff01da32686223933d8a18a391060918c7f11a3648639edd87ae013e2e273174360403392a260018055005b61038f9060203d602011610394575b6103878183610edd565b810190610eff565b610336565b503d61037d565b6040513d5f823e3d90fd5b60405162461bcd60e51b81526020600482015260136024820152724e6f207265776172647320746f20636c61696d60681b6044820152606490fd5b34610145576020366003190112610145576004356003548110156101455761040a60e091610e7a565b5060018060a01b0381541690600181015490600281015460038201546004830154916006600585015494015494604051968752602087015260408601526060850152608084015260a083015260c0820152f35b34610145575f3660031901126101455760206040515f8152f35b346101455761048536610e64565b61048d610f7d565b61049682610e7a565b505f8381526004602090815260408083203384529091529020805483116105a557600660036104f0926104c887611167565b6104d3868254610ed0565b8155600485016104e4878254610ed0565b90550192015443610ec3565b90604051906040820182811067ffffffffffffffff82111761059157604052838252602082019283528054600160401b8110156105915761053691600182018155610eaa565b92909261057e576001915183555191015560405191825260208201527f7fc4727e062e336010f2c282598ef5f14facb3de68cf8195c2f23e1454b2b74e60403392a260018055005b634e487b7160e01b5f525f60045260245ffd5b634e487b7160e01b5f52604160045260245ffd5b60405162461bcd60e51b8152602060048201526014602482015273496e73756666696369656e742062616c616e636560601b6044820152606490fd5b34610145576040366003190112610145576004356105fd610e4e565b61060682610e7a565b50915f52600460205260405f209060018060a01b03165f5260205260405f20600382015491600281015480431180610717575b61067c575b6020610674846002670de0b6b3a764000061066a89610664855491600187015490610ed0565b90610f4c565b0491015490610ec3565b604051908152f35b61068c6106979193929343610ed0565b600184015490610f4c565b91670de0b6b3a7640000830292808404670de0b6b3a7640000149015171561070357670de0b6b3a764000061066a6106f76020966106f160029560046106e86106749a6106e2610f17565b90610f5f565b91015490610f5f565b90610ec3565b9550505081925061063e565b634e487b7160e01b5f52601160045260245ffd5b5060048201541515610639565b34610145575f366003190112610145576020610674610f17565b3461014557604036600319011261014557610757610e4e565b6004355f525f60205260405f209060018060a01b03165f52602052602060ff60405f2054166040519015158152f35b61078f36610e64565b610797610f7d565b61079f61114c565b6107a882610e7a565b50825f52600460205260405f2060018060a01b0333165f5260205260405f2090600581015483106108e5576107dc84611167565b80546001600160a01b031680610885575082340361084a576004915b610803848254610ec3565b905501610811828254610ec3565b905560405191825260208201527f1449c6dd7851abc30abf37f57715f492010519147cc2652fbc38202c18a6ee9060403392a260018055005b60405162461bcd60e51b815260206004820152601360248201527208aa89040c2dadeeadce840dad2e6dac2e8c6d606b1b6044820152606490fd5b9160205f936064604051809681936323b872dd60e01b83523360048401523060248401528960448401525af192831561039b576004936108c6575b506107f8565b6108de9060203d602011610394576103878183610edd565b50856108c0565b60405162461bcd60e51b815260206004820152601560248201527410995b1bddc81b5a5b9a5b5d5b4819195c1bdcda5d605a1b6044820152606490fd5b34610145575f3660031901126101455760206040517fa49807205ce4d355092ef5a8a18f56e8913cf4a201fbe287825b095693c217758152f35b34610145575f36600319011261014557602060ff600254166040519015158152f35b34610145576080366003190112610145576004356001600160a01b03811690819003610145576109ac610f9d565b60405160e0810181811067ffffffffffffffff821117610591576040528181526020810190602435825260408101438152606082015f8152608083015f815260a0840191604435835260c08501936064358552600354600160401b81101561059157806001610a1e9201600355610e7a565b97909761057e5760069660018060a01b039051166bffffffffffffffffffffffff60a01b89541617885551600188015551600287015551600386015551600485015551600584015551910155600354905f198201918211610703577f1f1f6396247a5ba59b7b1e094ec3a8e439d4dace0c5ac4fe3ecfde3e68e03a8a9160409182519182526020820152a1005b34610145575f36600319011261014557610ac3610f9d565b610acb61114c565b600160ff1960025416176002557f62e78cea01bee320cd4e420270b5ea74000d11b0c9f74754ebdbfc544b05a2586020604051338152a1005b34610145575f36600319011261014557610b1c610f9d565b60025460ff811615610b5b5760ff19166002557f5db9ee0a495bf2e6ff9c91a7834c1ba4fdd244a5e8aa4e537bd38aeae4b073aa6020604051338152a1005b638dfc202b60e01b5f5260045ffd5b3461014557604036600319011261014557610b83610e4e565b336001600160a01b03821603610b9f576101c5906004356110cc565b63334bd91960e11b5f5260045ffd5b34610145576040366003190112610145576101c5600435610bcd610e4e565b90610be66101bb825f525f602052600160405f20015490565b611044565b346101455760203660031901126101455760206106746004355f525f602052600160405f20015490565b3461014557602036600319011261014557600435610c31610f7d565b5f81815260046020908152604080832033845290915281209091600390910190825b825480821015610d2a57610c678285610eaa565b506001439101541115610c86575b505f19811461070357600101610c53565b93610c9d90610c958386610eaa565b505490610ec3565b935f19810190811161070357610cb39084610eaa565b50610cbe8285610eaa565b91909161057e57808203610d16575b505082548015610d02575f1901610ce48185610eaa565b61057e576001815f809355015583558015610703575f190184610c75565b634e487b7160e01b5f52603160045260245ffd5b600181819254845501549101558480610ccd565b82858015610dbd57610d3c5f92610e7a565b50546001600160a01b031680158314610d635750818080923382f11561039b575b60018055005b60405163a9059cbb60e01b81523360048201526024810192909252909160209183916044918391905af1801561039b57610d9e575b50610d5d565b610db69060203d602011610394576103878183610edd565b5080610d98565b60405162461bcd60e51b8152602060048201526016602482015275139bc81dda5d1a191c985dd8589b1948185b5bdd5b9d60521b6044820152606490fd5b34610145576020366003190112610145576004359063ffffffff60e01b821680920361014557602091637965db0b60e01b8114908115610e3d575b5015158152f35b6301ffc9a760e01b14905083610e36565b602435906001600160a01b038216820361014557565b6040906003190112610145576004359060243590565b600354811015610e965760035f52600760205f20910201905f90565b634e487b7160e01b5f52603260045260245ffd5b8054821015610e96575f5260205f209060011b01905f90565b9190820180921161070357565b9190820391821161070357565b90601f8019910116810190811067ffffffffffffffff82111761059157604052565b90816020910312610145575180151581036101455790565b5f5f6003545b808210610f2957505090565b9091610f4460019182610f3b86610e7a565b50015490610ec3565b920190610f1d565b8181029291811591840414171561070357565b8115610f69570490565b634e487b7160e01b5f52601260045260245ffd5b600260015414610f8e576002600155565b633ee5aeb560e01b5f5260045ffd5b335f9081527f7d7ffb7a348e1c6a02869081a26547b49160dd3df72d1d75a570eb9b698292ec602052604090205460ff1615610fd557565b63e2517d3f60e01b5f52336004527fa49807205ce4d355092ef5a8a18f56e8913cf4a201fbe287825b095693c2177560245260445ffd5b5f8181526020818152604080832033845290915290205460ff161561102e5750565b63e2517d3f60e01b5f523360045260245260445ffd5b5f818152602081815260408083206001600160a01b038616845290915290205460ff166110c6575f818152602081815260408083206001600160a01b0395909516808452949091528120805460ff19166001179055339291907f2f8788117e7eff1d82e926ec794901d17c78024a50270940304540a733656f0d9080a4600190565b50505f90565b5f818152602081815260408083206001600160a01b038616845290915290205460ff16156110c6575f818152602081815260408083206001600160a01b0395909516808452949091528120805460ff19169055339291907ff6391f5c32d9c69d2a47ea670b442974b53935d1edc7fd64eb21e047a839171b9080a4600190565b60ff6002541661115857565b63d93c066560e01b5f5260045ffd5b61117090610e7a565b5060028101908154804311156111f15760048201549081611194575b505050439055565b61068c6111a19143610ed0565b90670de0b6b3a7640000820291808304670de0b6b3a76400001490151715610703576111dd6003916111d86111e7946106e2610f17565b610f5f565b9201918254610ec3565b90555f808061118c565b50505056fea2646970667358221220583acb75a09ea9a0bd4af65fbb2105313bc2f1484f5411ed1fa9a22d0a4bd4a364736f6c634300081e00332f8788117e7eff1d82e926ec794901d17c78024a50270940304540a733656f0d7d7ffb7a348e1c6a02869081a26547b49160dd3df72d1d75a570eb9b698292eccc1f69e0eef30e6cab9eba078dfde64e8255bf01f21b8122b031b67f051e2292ad3228b676f7d3cd4284a5443f17f1962b36e491b30a40b2405849e597ba5fb5",
    "sourcePath": "/Users/wuyongsong/Documents/project/web3/font/state/packages/state-hardhat/contracts/MateNodeStake.sol",
    "compiler": {
        "name": "solc",
        "version": "0.8.30+commit.73712a01"
    },
    "functionHashes": {
        "ADMIN_ROLE()": "75b238fc",
        "DEFAULT_ADMIN_ROLE()": "a217fddf",
        "UPGRADER_ROLE()": "f72c0d8b",
        "addPool(address,uint256,uint256,uint256)": "5a4ec0ca",
        "claimReward(uint256)": "ae169a50",
        "emergencyPause()": "51858e27",
        "emergencyUnpause()": "4a4e3bd5",
        "getRoleAdmin(bytes32)": "248a9ca3",
        "grantRole(bytes32,address)": "2f2ff15d",
        "hasRole(bytes32,address)": "91d14854",
        "paused()": "5c975abb",
        "pendingReward(uint256,address)": "98969e82",
        "pools(uint256)": "ac4afa38",
        "renounceRole(bytes32,address)": "36568abe",
        "revokeRole(bytes32,address)": "d547741f",
        "rewardToken()": "f7c618c1",
        "stake(uint256,uint256)": "7b0472f0",
        "supportsInterface(bytes4)": "01ffc9a7",
        "totalWeight()": "96c82e57",
        "unstake(uint256,uint256)": "9e2c8a5b",
        "updatePoolConfig(uint256,uint256,uint256,uint256)": "d45d2e78",
        "users(uint256,address)": "b9d02df4",
        "withdrawUnstaked(uint256)": "2343d522"
    },
    "gasEstimates": {
        "creation": {
            "codeDepositCost": "930400",
            "executionCost": "infinite",
            "totalCost": "infinite"
        },
        "external": {
            "ADMIN_ROLE()": "351",
            "DEFAULT_ADMIN_ROLE()": "482",
            "UPGRADER_ROLE()": "615",
            "addPool(address,uint256,uint256,uint256)": "155420",
            "claimReward(uint256)": "infinite",
            "emergencyPause()": "29876",
            "emergencyUnpause()": "27727",
            "getRoleAdmin(bytes32)": "2385",
            "grantRole(bytes32,address)": "33333",
            "hasRole(bytes32,address)": "2726",
            "paused()": "2444",
            "pendingReward(uint256,address)": "15819",
            "pools(uint256)": "19739",
            "renounceRole(bytes32,address)": "28923",
            "revokeRole(bytes32,address)": "33704",
            "rewardToken()": "2770",
            "stake(uint256,uint256)": "infinite",
            "supportsInterface(bytes4)": "270",
            "totalWeight()": "infinite",
            "unstake(uint256,uint256)": "infinite",
            "updatePoolConfig(uint256,uint256,uint256,uint256)": "72373",
            "users(uint256,address)": "7126",
            "withdrawUnstaked(uint256)": "infinite"
        },
        "internal": {
            "updatePool(uint256)": "infinite"
        }
    }
}